:100000000C945A000C9477000C9477000C947700B1
:100010000C9477000C9477000C9477000C94770084
:100020000C9477000C9477000C9477000C94770074
:100030000C9477000C9477000C9477000C94770064
:100040000C9477000C9477000C9477000C94770054
:100050000C9477000C9477000C9477000C94770044
:100060000C9477000C9477000C9477000C94770034
:100070000C9477000C9477000C9477000C94770024
:100080000C9477000C9477000C9477000C949A01F0
:100090000C9477000C9477000C9477000C94770004
:1000A0000C9477000C9477000C9477000C947700F4
:1000B0000C94770011241FBECFEFD8E0DEBFCDBF78
:1000C00011E0A0E0B1E0E2E3F4E002C005900D929F
:1000D000A437B107D9F721E0A4E7B1E001C01D9230
:1000E000A637B207E1F70E94DB010C9417020C94CB
:1000F00000008BB1837F8BB917BC08958AB18C60E7
:100100008AB98AB180648AB983E884BD82E085BDFA
:1001100017BC0E9479000895CF93DF93EB0160E054
:100120000E942201CE010E941501DF91CF91089516
:1001300060E00E9422018DE191E00E941501089586
:100140001092B90088E48093B800089594EA9093DF
:10015000BC009091BC009923E4F79091B900987F7E
:10016000983059F48093BB0084E88093BC00809160
:10017000BC008823E4F78091B90008958093BB0008
:1001800084E88093BC008091BC008823E4F79091C0
:10019000B900987F81E0983209F080E0089584E901
:1001A0008093BC008091BC0084FDFCCF08950F9328
:1001B0001F93CF93DF93062F182F107F90E1899F15
:1001C000E00111248EE40E94A600D12FD02B8D2FA8
:1001D0008C600E94BE0085E08A95F1F700008D2FAB
:1001E00088600E94BE0087EC90E00197F1F700C0A4
:1001F0000000C02B8C2F8C600E94BE0095E09A9569
:10020000F1F700008C2F88600E94BE000E94CF0092
:10021000DF91CF911F910F91089560E00E94D70068
:10022000089561E00E94D7000895CF93DF93EC0119
:1002300003C021960E94110188818111FACFDF91BC
:10024000CF910895811180E4860F80580E940D019E
:1002500008952FEF80E792E0215080409040E1F731
:1002600000C0000083E30E940D0182E30E940D01A3
:1002700088E20E940D018CE00E940D0186E00E9440
:100280000D0181E00E940D018FE39FE10197F1F7DD
:1002900000C0000008956DE471E080E00E948C00D1
:1002A0006BE571E081E00E948C0080E00E94010219
:1002B00080E00E940C022FEF87EA91E621508040F7
:1002C0009040E1F700C0000080E00E94980081E0CB
:1002D0000E949800089567E671E080E00E948C001B
:1002E0006BE571E081E00E948C0084EB0E940102CA
:1002F00084EB0E940C022FEF87EA91E621508040A8
:100300009040E1F700C0000080E00E94980081E08A
:100310000E94980008951092900084E080939100CC
:100320001092950010929400E1E7F0E080818160E6
:10033000808308951F920F920FB60F9211242F936E
:100340003F934F935F936F937F938F939F93AF935D
:10035000BF93EF93FF930E94790010929500109243
:100360009400809175018F5F809375018091750174
:10037000853080F01092750180917401811106C062
:100380000E946B0181E08093740104C00E944B01C4
:1003900010927401FF91EF91BF91AF919F918F9156
:1003A0007F916F915F914F913F912F910F900FBE71
:1003B0000F901F9018950E94E7010E947E000E94F6
:1003C000A0000E9429010E948B017894FFCF84B184
:1003D000866084B982EA809380008AE180938100FC
:1003E0008FE39CE9909387008093860088EB9BE0E5
:1003F000909389008093880090938B0080938A006B
:1004000008952BE0829FC001112488519C4F909346
:1004100089008093880008952BE0829FC0011124F9
:1004200088519C4F90938B0080938A000895F89494
:02043000FFCFFC
:1004320048656C6C6F2C204350453336302100499F
:100442003243204C434420526561647900202020CD
:1004520020202020202020202020202020004C6549
:10046200667420536572766F203D203000526967B2
:10047200687420536572766F203D20300054757287
:100482006E696E67205269676874005370656564AF
:100492003A2031303025005475726E696E67204CF7
:0404A2006566740017
:00000001FF
